:020000040800F2
:1000000020040020010100084903000899020008AB
:10001000C502000875010008210900080000000061
:10002000000000000000000000000000E9040008DB
:100030007901000800000000D1030008D505000880
:100040001B0100081B0100081B0100081B01000820
:100050001B0100081B0100081B0100081B01000810
:100060001B0100081B0100081B0100081B01000800
:100070001B0100081B0100081B0100081B010008F0
:100080001B0100081B0100081B0100081B010008E0
:100090001B0100081B0100081B0100081B010008D0
:1000A0001B0100081B0100081B0100081B010008C0
:1000B000390600081B0100081B0100081B0100088D
:1000C0001B0100081B0100081B0100081B010008A0
:1000D0001B0100081B0100081B0100081B01000890
:1000E0001B0100081B0100081B010008DFF80CD0F1
:1000F00000F02EF800480047DD0A00082004002028
:100100000648804706480047FEE7FEE7FEE7FEE7B1
:10011000FEE7FEE7FEE7FEE7FEE7FEE7D90500089B
:10012000ED00000830B50B460146002020220124D6
:1001300009E021FA02F59D4205D303FA02F5491BB5
:1001400004FA02F52844151EA2F10102F1DC30BDCB
:10015000064C074D06E0E06840F0010394E8070014
:1001600098471034AC42F6D3FFF7C4FFF40A0008F6
:10017000140B000800BFFEE770472DE9F04102466E
:1001800000250026002000230024002791F803C04A
:100190000CF00F0591F803C00CF0100CBCF1000F2F
:1001A00003D091F802C04CEA050591F800C0BCF1FB
:1001B000000F31D0146800202BE04FF0010C0CFA36
:1001C00000F3B1F800C00CEA03069E4220D1830080
:1001D0004FF00F0C0CFA03F7BC4305FA03FC4CEA92
:1001E000040491F803C0BCF1280F06D14FF0010CB4
:1001F0000CFA00FCC2F814C00AE091F803C0BCF18C
:10020000480F05D14FF0010C0CFA00FCC2F810C0E9
:10021000401C0828D1D31460B1F800C0BCF1FF0F16
:1002200034DD546800202EE000F1080C4FF0010886
:1002300008FA0CF3B1F800C00CEA03069E4221D183
:1002400083004FF00F0C0CFA03F7BC4305FA03FCD4
:100250004CEA040491F803C0BCF1280F05D100F169
:10026000080C08FA0CF8C2F8148091F803C0BCF12D
:10027000480F07D100F1080C4FF0010808FA0CF8FC
:10028000C2F81080401C0828CED35460BDE8F0812D
:10029000416170470161704700BFFEE708B5012169
:1002A000082000F0A7F810208DF803000220ADF818
:1002B00000008DF8020069460148FFF75EFF08BDA7
:1002C000000C014000BFFEE700B585B001218803A6
:1002D00000F090F80121052000F08CF818208DF82E
:1002E00013004FF40070ADF8100003208DF81200D9
:1002F00004A91348FFF741FF04208DF81300000202
:10030000ADF8100004A90E48FFF737FF4FF4E130B5
:1003100000900020ADF80C000C20ADF80A00002081
:10032000ADF80800ADF80600ADF8040069460548D0
:1003300000F086FA0121034800F068FA05B000BD1C
:1003400000080140003801407047000070B50021EE
:1003500000230F22C47804B3154C246804F4E0642D
:10036000C4F5E064210AC1F10403CA40447804FAE8
:1003700003F184781440214309010E4C0678A155FD
:10038000047804F01F050124AC4005786D11AD0020
:1003900005F1E025C5F8004109E0047804F01F05E7
:1003A0000124AC40044D0678761145F8264070BD16
:1003B0000CED00E000E400E080E100E002490143D0
:1003C000024A1160704700000000FA050CED00E0E1
:1003D0007047000029B1064AD2690243044BDA6132
:1003E00004E0034AD2698243014BDA61704700009E
:1003F0000010024029B1064A92690243044B9A61F7
:1004000004E0034A92698243014B9A6170470000FD
:100410000010024030B500210022002400232D4DA1
:100420006D6805F00C0121B1042905D0082923D1FC
:1004300005E0294D056022E0274D05601FE0254DB0
:100440006D6805F47012234D6D6805F48034022543
:1004500005EB92421CB9214D554305600BE01D4D43
:100460006D6805F400351DB11C4D5543056002E073
:10047000194D5543056002E0174D056000BF00BFF0
:10048000144D6D6805F0F0010909154D6B5C0568A8
:10049000DD4045600F4D6D6805F4E061090A104DBF
:1004A0006B5C4568DD4085600A4D6D6805F4605100
:1004B000C90A0B4D6B5C4568DD40C560054D6D6834
:1004C00005F44041890B074D6B5CC568B5FBF3F53E
:1004D000056130BD0010024000127A0000093D00A5
:1004E0000000002010000020704710B500F002F856
:1004F00010BD00000CB5002001900090334800684A
:1005000040F480303149086000BF3048006800F492
:10051000003000900198401C0190009818B9019893
:10052000B0F5A06FF1D12948006800F4003010B197
:100530000120009001E0002000900098012843D1A4
:100540002348006840F01000214908600846006810
:1005500020F0030008600846006840F002000860D0
:100560001A4840681949486008464068486008468B
:10057000406840F4806048600846406820F47C1081
:1005800048600846406840F4E81048600846006843
:1005900040F08070086000BF0C48006800F00070F8
:1005A0000028F9D00948406820F003000749486056
:1005B0000846406840F00200486000BF03484068B9
:1005C00000F00C000828F9D10CBD0000001002401A
:1005D000002002407047000010B51348006840F04A
:1005E00001001149086008464068104908400E495A
:1005F0004860084600680E4908400B4908600846F4
:10060000006820F4802008600846406820F4FE005E
:1006100048604FF41F008860FFF767FF4FF00060ED
:100620000449086010BD0000001002400000FFF8FF
:10063000FFFFF6FE08ED00E010B515480078401CFD
:10064000134908700121880700F03DF8D0B1104827
:10065000017810A000F066F91148007838B901203F
:100660000F49087002210F48FFF712FE0AE00C48FC
:100670000078012806D100200949087002210948A4
:10068000FFF708FE0121880700F00EF810BD0000FA
:100690001500002074696D653A25640A00000000A9
:1006A00014000020000C0140CA430282704721B1AF
:1006B000028842F00102028004E002884FF6FE73D5
:1006C0001A400280704730B5024600200023002403
:1006D000158A05EA0103958905EA010413B10CB1F5
:1006E000012000E0002030BD1AB183890B438381D3
:1006F00002E083898B4383817047000000220288D7
:100700001D4B98420ED01D4B98420BD0B0F1804F3C
:1007100008D01B4B984205D01A4B984202D01A4B76
:10072000984204D14FF68F731A404B881A43174BE7
:10073000984207D0164B984204D04FF6FF431A4018
:10074000CB881A4302808B8883850B8803850A4BEC
:1007500098420BD0094B984208D00E4B984205D0D6
:100760000D4B984202D00D4B984201D10B7A038673
:100770000123838270470000002C014000340140B7
:100780000004004000080040000C00400010004041
:100790000014004000400140004401400048014076
:1007A0007FB505460C464FF4C060FFF707FE0121F8
:1007B0000846FFF70FFEA8B2ADF80800A0B2ADF8EA
:1007C00004000020ADF80A00ADF8060001A94FF0C2
:1007D0008040FFF793FF01218807FFF768FF0121A1
:1007E0008807FFF761FF012211469007FFF77CFFA2
:1007F0001C208DF8000001208DF801008DF802000A
:100800008DF803006846FFF7A1FD7FBD21B1828905
:1008100042F40052828104E082894DF6FF731A404F
:100820008281704702460020B1F5007F00D100BFF1
:1008300013880B400BB1012000E00020704700003E
:100840002DE9F04786B005460E460024A24600BFBB
:10085000A1460027B08900B100BF2F462C8A4CF674
:10086000FF700440F08804432C82AC894EF6F310EC
:100870000440B08831890843718908430443AC813E
:10088000AC8A4FF6FF400440B0890443AC8201A813
:10089000FFF7C0FD1F48874202D1DDF810A001E03C
:1008A000DDF80CA0A88900F4004040B10AEBCA00B2
:1008B00000EB0A1031684900B0FBF1F807E00AEBE1
:1008C000CA0000EB0A1031688900B0FBF1F864201F
:1008D000B8FBF0F004012009642101FB1089A8890C
:1008E00000F4004040B1322000EBC900B0FBF1F051
:1008F00000F00700044308E0322000EB09106421F7
:10090000B0FBF1F000F00F0004432C8106B0BDE80D
:10091000F087000000380140C1F308028280704770
:1009200000BFFEE70FB4054B10B503A9044A0298B7
:1009300000F018F810BC5DF814FB0000B90A0008BC
:100940001800002002E008C8121F08C1002AFAD1CE
:1009500070477047002001E001C1121F002AFBD13F
:10096000704700002DE9FF4F89B09B4604460025E3
:1009700006E025280BD05A460B999047641C6D1C45
:1009800020780028F5D10DB02846BDE8F08F00276B
:10099000B8460122474900E0074314F8013F203BD5
:1009A00002FA03F00842F7D120782E2819D114F862
:1009B000010F47F004072A280ED06FF02F0220788D
:1009C000A0F1300109290CD808EB880102EB4101A4
:1009D00000EB0108641CF2E70A98641C50F8048BD1
:1009E0000A9020780028CED0642808D0692806D044
:1009F00075281ED05A460B9990476D1C58E00A99ED
:100A00004FF00A0901C90A91002802DA40422D215B
:100A100002E0390504D52B218DF82010012103E0D7
:100A2000F90704D02021F7E78A4608AE0DE000213F
:100A3000FAE70A994FF00A0901C90A91F7E749460E
:100A4000FFF770FB303106F8011D0028F7D1ADEB40
:100A5000060000F12009780701D44FF00108C845CD
:100A600002DDA8EB090000E000208046002706E038
:100A700008A85A46C05D0B9990476D1C7F1C5745CE
:100A8000F6DB04E030205A460B9990476D1CB8F114
:100A90000001A8F10108F5DC05E016F8010B5A4643
:100AA0000B9990476D1CB9F10001A9F10109F4DC23
:100AB000641C65E70928010070B504460D46E1B2E3
:100AC0000548FFF729FF00BF80210348FFF7AAFE72
:100AD0000028F9D0204670BD00380140FFF7DEFB4A
:100AE00048F69F4140F2CF70FFF75AFEFFF7ECFB4C
:100AF00000BFFEE7140B0008000000201C000000EF
:100B000044090008300B00081C0000200404000009
:100B1000540900080000000001020304010203045C
:100B20000607080902040608000000000000000093
:04000005080000ED02
:00000001FF
